:100FC000759DFFE4F5BDF5BE75BCC07592FF7591CA
:080FD000FF7FE87E03020FD849
:100C3B00E4F508F509EF44C8F5BC7F017E00120FFF
:100C4B00D8E5BC30E4FB53BCEFE59730E512E5BDCE
:100C5B005403750800F509ADBEF508EDF5098021C3
:100C6B00AFBD7508008F09AE08E5097802C333CE16
:100C7B0033CED8F9FFE5BE5403FDEEF508EF4DF585
:050C8B0009AE08AF09ED
:010C90002241
:040003007F02DFFE9B
:0100070022D6
:081090007F127EEBDEFEDFFCA7
:011098002235
:100FD800AD07AC06ED1DAE0470011C4E6005121085
:040FE8009080F122E2
:100FEC00AD07AC06ED1DAE0470011C4E6005120081
:040FFC000380F1225B
:100EB900536D6172744361722D56312E3000457144
:100EC9007569706D656E74206973204F4B005469A4
:0B0ED9006D653A2020202020205300EF
:03036A0001270068
:100F8C00E4F594F593F592F591F596F595F5B2F5A2
:0A0F9C00B1F5B4F5B3F5CAF5C922AA
:100ADC00E4FF120C3B8F30E4FF120C3B8F31E4FF30
:100AEC00120C3B8F32E5302531FFE433FE7C00EFF6
:100AFC002532FFEC3EFE7D031207CD8F2F7F0112B6
:100B0C000C3B8F237F01120C3B8F247F01120C3B7B
:100B1C008F25E5232524FFE433FE7C00EF2525FFFC
:100B2C00EC3EFE7D031207CD8F227F02120C3B8F11
:100B3C002C7F02120C3B8F2D7F02120C3B8F2EE56B
:100B4C002C252DFFE433FE7C00EF252EFFEC3EFE22
:080B5C007D031207CD8F2B224F
:100E520020A0117F0F7E00120FD820A00775270156
:100E6200C2CAD28CAF27EF6401701A208514120F08
:100E720054E4F527C28CD2CA7FD07E07120FD80263
:060E8200103C1205A22243
:1005A200C3E52294467480948040057F630207AEBF
:1005B200AF227E00C3EF9428748094805003020718
:1005C20088D3EF9446748094804003020788AF2F4B
:1005D200C3EF941E7480948050030206AEE52B9400
:1005E2001E7480948040030206AEC3EF941E748092
:1005F20094804012EF94237480948050097D5A7C39
:10060200007F500206ABAF2F7E00C3EF94237480AD
:1006120094804012EF94287480948050097D5A7C13
:10062200007F4B0206ABAF2F7E00C3EF942874808D
:1006320094804011EF942D7480948050087D557CF5
:10064200007F418064AF2F7E00C3EF942D748094AD
:10065200804011EF94327480948050087D557C0064
:100662007F378045AF2F7E00C3EF94327480948031
:100672004011EF94377480948050087D507C007F45
:10068200288026AF2F7E00C3EF943274809480407E
:1006920011EF943C7480948050087D467C007F2347
:1006A20080077D3C7C00E4FFFE121028C3E52F94F6
:1006B2001E7480948040030207B3AF2B7E00C3EF09
:1006C200941E7480948050030207B3EF941E7480CA
:1006D2009480400DEF94237480948050047D508068
:1006E20019AF2B7E00C3EF9423748094804012EFE5
:1006F20094287480948050097D4B7C007F5A0207B5
:1007020085AF2B7E00C3EF9428748094804011EF54
:10071200942D7480948050087D417C007F558063C5
:10072200AF2B7E00C3EF942D748094804011EF9420
:10073200327480948050087D377C007F558044AFAE
:100742002B7E00C3EF9432748094804011EF943773
:100752007480948050087D287C007F508025AF2BC8
:100762007E00C3EF9432748094804011EF943C7405
:1007720080948050087D237C007F468006E4FDFC47
:100782007F3CFE021028E52FD3952B400B7D327C57
:10079200007F237E00020F32E52FC3952B500B7D85
:1007A200237C007F327E000210147F237E00121011
:0207B200002223
:100C9100120F8C1209B4120BDC120FC012104ED2BB
:100CA100AF7F647E00120FEC7BFF7A0E79B97D1461
:100CB1007F01120B647BFF7A0E79C7E4FD7F03127B
:100CC1000B647BFF7A0E79D7E4FD7F05120B64C2BA
:0C0CD100CA120ADC120E52120E1B80F533
:100BDC0043BA80E4F5F190FFF27403F090FFF074E7
:100BEC0070F0A3E4F090FF147408F090FF24F090E0
:100BFC00FF44F090FF54F090FF10E4F0A304F0A336
:100C0C00E4F0A3F090FF20F0A304F0A3E4F0A3F031
:100C1C0090FF40F0A304F0A3E4F0A3F090FF50F099
:0F0C2C00A304F0A3E4F0A3F043F58053BA7F22B2
:100D6400D3EF9464EE9400400653F5FDC2C52243CC
:100D7400BA8090FF10E4F0A304F0E4FCFDFB7A7069
:100D8400F9F8120822E47B64FAF9F8120CDD90FFFA
:0D0D940012EEF0A3EFF053BA7F43F50222F8
:060D2100120D64E4FFFE68
:100D2700D3EF9464EE9400400653F5FBC2C422430C
:100D3700BA8090FF20E4F0A304F0E4FCFDFB7A7096
:100D4700F9F8120822E47B64FAF9F8120CDD90FF37
:0D0D570022EEF0A3EFF053BA7F43F5042223
:100DA100D3EF9464EE9400400653F5DFC2872243EB
:100DB100BA8090FF50E4F0A304F0E4FCFDFB7A70EC
:100DC100F9F8120822E47B64FAF9F8120CDD90FFBD
:0D0DD10052EEF0A3EFF053BA7F43F520225D
:100DDE00D3EF9464EE9400400653F5EFC28622439F
:100DEE00BA8090FF40E4F0A304F0E4FCFDFB7A70BF
:100DFE00F9F8120822E47B64FAF9F8120CDD90FF80
:0D0E0E0042EEF0A3EFF053BA7F43F510223F
:101000008E088F09120D21AF09AE08120DA1E4FF61
:04101000FE020DDEF1
:100F32008E088F098C0A8D0BE4FFFE120D64AF0937
:100F4200AE08120D27AF0BAE0A120DA1E4FFFE028E
:020F52000DDEB2
:101014008C088D09120D21E4FFFE120DA1AF09AE5B
:0410240008020DDED3
:101028008C088D09120D21AF09AE08120DA1E4FF3D
:04103800FE020DDEC9
:100F54007F017E00120D647F017E00120D277F0148
:0C0F64007E00120DA17F017E00020DDE58
:10103C00E4FFFE120D21E4FFFE120DA1E4FFFE02FF
:02104C000DDEB7
:041099002534640096
:08036D00023300000239000018
:10104E00438E805389F0E4F58A758CB8C28DD2A98F
:01105E00226F
:03000B00020EE4FE
:100EE400C0E0C0D00534E53470020533B4E813E53E
:100EF40033B4030E053AE53A7002053975330075CB
:070F04003400D0D0D0E03230
:100E1B00208C33E53A4539602D750BFF750C107539
:100E2B000D9985390E853A0F7B007A0079351200C2
:100E3B006A7B007A0079357D1E7F05120B64208C4E
:070E4B00FDE4F539F53A2240
:10037500622800000000000000000000002F0000BF
:1003850000000700070000147F147F1400242A7F53
:100395002A120062640813230036495522500000D2
:1003A5000503000000001C224100000041221C0042
:1003B5000014083E08140008083E0808000000A0C4
:1003C50060000008080808080000606000000020C0
:1003D50010080402003E5149453E0000427F40009E
:1003E500004261514946002141454B310018141224
:1003F5007F10002745454539003C4A4949300001F1
:100405007109050300364949493600064949291E3F
:1004150000003636000000005636000000081422A1
:1004250041000014141414140000412214080002A1
:100435000151090600324959513E007C1211127CC6
:10044500007F49494936003E41414122007F4141F3
:10045500221C007F49494941007F09090901003EE5
:100465004149497A007F0808087F0000417F410023
:10047500002040413F01007F08142241007F404099
:100485004040007F020C027F007F0408107F003E81
:100495004141413E007F09090906003E4151215E67
:1004A500007F091929460046494949310001017F64
:1004B5000101003F4040403F001F2040201F003FFA
:1004C5004038403F006314081463000708700807AC
:1004D50000615149454300007F41410000552A55BF
:1004E5002A55000041417F0000040201020400403A
:1004F500404040400000010204000020545454785C
:10050500007F48444438003844444420003844447B
:10051500487F00385454541800087E090102001819
:10052500A4A4A47C007F080404780000447D400056
:10053500004080847D00007F102844000000417F3A
:100545004000007C04180478007C08040478003816
:100555004444443800FC242424180018242418FC9E
:10056500007C0804040800485454542000043F4407
:100575004020003C4040207C001C2040201C003CCA
:100585004030403C004428102844001CA0A0A07C1A
:0C059500004464544C4414141414141456
:100F7000E4FDEDC39FE49E5012E4FCECC394C874FE
:0B0F800080948050030C80F30D80E78C
:010F8B002243
:0D106E0043A204E4F5CF75CDC075CED022AD
:0B107B008FCFE5CD30E7FB75CDC02224
:05105F00121064E4FF23
:0A106400C2A5C2A612107BD2A6227C
:0A108600D2A5C2A612107BD2A6224A
:100FA600EF24B0FF121064ED540FFF121064ED54DD
:0A0FB600F0C4540F4410FF02106451
:100E8800E4FEFDEDC39408748094805023ED24B0F3
:100E9800FF12105F7F10121064E4FEEEC39480749A
:100EA8008094805008E4FF1210860E80EE0D80D3E7
:010EB8002217
:1009B400E4F596F595D2A47F32FE120F70C2A4120C
:1009C4000F70D2A412106E7F64120F707FAE1210DB
:1009D4005F7F101210647FD51210647F8012106440
:1009E4007FA81210647F3F1210647FD312105F7FC0
:1009F400401210647F8D1210647F141210647F20E3
:100A04001210647F021210647FA11210647FC81256
:100A140010647FDA1210647F121210647F81121046
:100A2400647FCF1210647FD91210647FF1121064B6
:100A34007FDB1210647F401210647FA41210647F65
:0C0A4400A6121064120E887FAF0210642E
:040B64008D08AE0743
:100B6800E4F5091207B4606BEED39407748094809F
:100B78004007EE75F00784AEF0E508D394787480EA
:100B880094804004E4F5080EAF06AD08120FA612D3
:100B980007B424E0F509E4FDEDC39406748094805D
:100BA800502275F006E509A42400F582E5F034002A
:100BB800F583E5822DF582E43583F583E0FF121095
:100BC800860D80D474062508F508740129F9E43ADD
:030BD800FA809010
:010BDB0022F7
:03000000020A50A1
:0C0A5000787FE4F6D8FD75813A020A9721
:1007B400BB010689828A83E0225002E722BBFE0243
:0907C400E32289828A83E4932276
:1007CD00BC000BBE0029EF8DF084FFADF022E4CC10
:1007DD00F875F008EF2FFFEE33FEEC33FCEE9DECD9
:1007ED00984005FCEE9DFE0FD5F0E9E4CEFD22ED1F
:1007FD00F8F5F0EE8420D21CFEADF075F008EF2F69
:10080D00FFED33FD4007985006D5F0F222C398FD59
:05081D000FD5F0EA22F6
:10082200E88FF0A4CC8BF0A42CFCE98EF0A42CFC75
:100832008AF0EDA42CFCEA8EF0A4CDA8F08BF0A4F3
:100842002DCC3825F0FDE98FF0A42CCD35F0FCEB52
:100852008EF0A4FEA9F0EB8FF0A4CFC5F02ECD3917
:0F086200FEE43CFCEAA42DCE35F0FDE43CFC2284
:100CDD00C2D5E830E70FB2D5E4C39BFBE49AFAE442
:100CED0099F9E498F8EC30E717B2D5120D13120804
:100CFD00ECE4C39BFBE49AFAE499F9E498F88003D9
:100D0D001208EC30D50DE4C39FFFE49EFEE49DFD7B
:040D1D00E49CFC2234
:10000E00E517240BF8E60517227808300702780B5F
:10001E00E475F00112097E0207B42000EB7F2ED2A8
:10002E00008018EF540F2490D43440D4FF30040BCA
:10003E00EF24BFB41A0050032461FFE518600215C7
:10004E0018051BE51B7002051A30070D7808E475BC
:10005E00F00112097EEF02089E020F0B7403D20705
:10006E008003E4C207F5178B088A09890AE4F5189C
:10007E00F51AF51BE51860077F2012004980F5750B
:10008E0019FFC201C200C202C203C205C206C208E3
:10009E00120017FF700D3007057F0012005AAF1BBC
:1000AE00AE1A22B4255FC2D5C204120017FF24D0A7
:1000BE00B40A00501A75F00A781830D50508B6FF44
:1000CE000106C6A426F620D5047002D20380D924D8
:1000DE00CFB41A00EF5004C2E5D20402025AD20184
:1000EE0080C6D20080C0D20280BCD2D580BAD205E2
:1000FE0080B47F201200492002077401B518004019
:10010E00F112000EFF120049020082D208D20680C0
:10011E009512000EFB12000EFA12000EF94A4B70E9
:10012E0006792B7A037BFF20022EE518602A7E00CB
:10013E008E8275830012087160060EEE651970F0DE
:10014E00C2D5EBC0E0EAC0E0E9C0E0EE1202A1D0F9
:10015E00E0F9D0E0FAD0E0FB1207B4FF60AAEBC0E2
:10016E00E0EAC0E0E9C0E0120049D0E02401F9D095
:10017E00E03400FAD0E0FBE5190460DCD519D98033
:10018E00877BFF7A02799DD202809C79108002795A
:10019E0008C206C2088008D2D5790A8004790AC23C
:1001AE00D5E519047002F519E4FAFDFEFF12000EF2
:1001BE00FC7B0820011312000EFD7B1030000A128A
:1001CE00000EFE12000EFF7B20EC3382D592D5502E
:1001DE0013C3E43000069FFFE49EFEE42001039D5E
:1001EE00FDE49CFCE4CBF8C201EC700CCFCECDCC80
:1001FE00E824F8F870F38017C3EF33FFEE33FEED0B
:10020E0033FDEC33FCEB33FB994002FB0FD8E9EBEB
:10021E00300105F8D0E0C448B201C0E00AEC4D4E02
:10022E004F78207B0070C2EAB5190040BCC0E012C6
:10023E0002A3D0F0D0E0200104C4C0E0C4B201C0DB
:10024E00F0120032D0F0D5F0EB02008212098E01CE
:10025E001F5301995800F04C00EC42019D4F01A52F
:0F026E004401A54901054301AB55018F46018F9E
:10027D0045018F47034B5000F42D00F82E011B2B29
:10028D0000FC2301192003342A00B4480000011397
:10029D003F3F3F00790AA2D5200314300509B9105C
:1002AD00020404B9080104A2D5200602500104205D
:1002BD0002689202B518005034C0E07F2030031957
:1002CD007F30A20272067205500F1202FAC202C2EC
:1002DD0006C205C2087F30800F300503E9C0E01269
:1002ED000049300503D0E0F9D0E0B518CC30051742
:1002FD007F30B9100C1200497F583004077F788089
:10030D0003B908031200493002057F2D0200497F11
:10031D00202008F87F2B2006F322920280CF286E32
:10032D00756C6C2900D20112000E3001F8C20178F3
:10033D001830D50108F60200B42D5043495812006B
:10034D000E2403B405004001E49003469312003AD5
:0D035D00743A12003AD20375180402019997
:100A5C00020C91E493A3F8E493A34003F68001F213
:100A6C0008DFF48029E493A3F85407240CC8C3339B
:100A7C00C4540F4420C8834004F456800146F6DF6A
:100A8C00E4800B010204081020408090036AE47E8D
:100A9C00019360BCA3FF543F30E509541FFEE4935F
:100AAC00A360010ECF54C025E060A840B8E493A326
:100ABC00FAE493A3F8E493A3C8C582C8CAC583CA51
:100ACC00F0A3C8C582C8CAC583CADFE9DEE780BE09
:0105A1000059
:10087100BB010CE58229F582E5833AF583E022503C
:1008810006E92582F8E622BBFE06E92582F8E22286
:0D089100E58229F582E5833AF583E49322A0
:10089E00BB010689828A83F0225002F722BBFE0139
:0208AE00F32233
:1008B00075F008758200EF2FFFEE33FECD33CDCCFF
:1008C00033CCC58233C5829BED9AEC99E582984082
:1008D0000CF582EE9BFEED9AFDEC99FC0FD5F0D65F
:1008E000E4CEFBE4CDFAE4CCF9A88222B800C1B989
:1008F0000059BA002DEC8BF084CFCECDFCE5F0CBC7
:10090000F97818EF2FFFEE33FEED33FDEC33FCEBFF
:1009100033FB10D703994004EB99FB0FD8E5E4F9BA
:10092000FA227818EF2FFFEE33FEED33FDEC33FCA7
:10093000C933C910D7059BE99A4007EC9BFCE99A9B
:10094000F90FD8E0E4C9FAE4CCFB2275F010EF2FE0
:10095000FFEE33FEED33FDCC33CCC833C810D707E0
:100960009BEC9AE899400AED9BFDEC9AFCE899F81B
:0E0970000FD5F0DAE4CDFBE4CCFAE4C8F922AE
:10097E00FAE6FB0808E6F925F0F618E6CA3AF6227A
:10098E00D083D082F8E4937012740193700DA3A3F8
:10099E0093F8740193F5828883E47374029368600C
:0609AE00EFA3A3A380DF0C
:100F0B00EFB40A07740D120F16740A309811A899D2
:100F1B00B8130CC2983098FDA899C298B811F63046
:070F2B0099FDC299F599221E
:00000001FF
